{
  "contractName": "Management",
  "abi": [
    {
      "inputs": [],
      "name": "dayCount",
      "outputs": [
        {
          "internalType": "uint256",
          "name": "",
          "type": "uint256"
        }
      ],
      "stateMutability": "view",
      "type": "function",
      "constant": true
    },
    {
      "inputs": [],
      "name": "deadCount",
      "outputs": [
        {
          "internalType": "uint256",
          "name": "",
          "type": "uint256"
        }
      ],
      "stateMutability": "view",
      "type": "function",
      "constant": true
    },
    {
      "inputs": [
        {
          "internalType": "string",
          "name": "",
          "type": "string"
        }
      ],
      "name": "deadGroup",
      "outputs": [
        {
          "internalType": "uint256",
          "name": "count",
          "type": "uint256"
        },
        {
          "internalType": "uint256",
          "name": "percentage",
          "type": "uint256"
        }
      ],
      "stateMutability": "view",
      "type": "function",
      "constant": true
    },
    {
      "inputs": [
        {
          "internalType": "string",
          "name": "",
          "type": "string"
        }
      ],
      "name": "districtCount",
      "outputs": [
        {
          "internalType": "uint256",
          "name": "count",
          "type": "uint256"
        },
        {
          "internalType": "uint256",
          "name": "median",
          "type": "uint256"
        }
      ],
      "stateMutability": "view",
      "type": "function",
      "constant": true
    },
    {
      "inputs": [
        {
          "internalType": "uint256",
          "name": "",
          "type": "uint256"
        }
      ],
      "name": "keyNames",
      "outputs": [
        {
          "internalType": "string",
          "name": "",
          "type": "string"
        }
      ],
      "stateMutability": "view",
      "type": "function",
      "constant": true
    },
    {
      "inputs": [],
      "name": "userCount",
      "outputs": [
        {
          "internalType": "uint256",
          "name": "",
          "type": "uint256"
        }
      ],
      "stateMutability": "view",
      "type": "function",
      "constant": true
    },
    {
      "inputs": [
        {
          "internalType": "uint256",
          "name": "",
          "type": "uint256"
        }
      ],
      "name": "users",
      "outputs": [
        {
          "internalType": "uint256",
          "name": "id",
          "type": "uint256"
        },
        {
          "internalType": "string",
          "name": "name",
          "type": "string"
        },
        {
          "internalType": "uint256",
          "name": "age",
          "type": "uint256"
        },
        {
          "internalType": "string",
          "name": "gender",
          "type": "string"
        },
        {
          "internalType": "string",
          "name": "vaccine_status",
          "type": "string"
        },
        {
          "internalType": "bool",
          "name": "is_dead",
          "type": "bool"
        },
        {
          "internalType": "string",
          "name": "district",
          "type": "string"
        }
      ],
      "stateMutability": "view",
      "type": "function",
      "constant": true
    },
    {
      "inputs": [
        {
          "internalType": "string",
          "name": "name",
          "type": "string"
        },
        {
          "internalType": "uint256",
          "name": "age",
          "type": "uint256"
        },
        {
          "internalType": "string",
          "name": "gender",
          "type": "string"
        },
        {
          "internalType": "string",
          "name": "vaccine_status",
          "type": "string"
        },
        {
          "internalType": "bool",
          "name": "is_dead",
          "type": "bool"
        },
        {
          "internalType": "string",
          "name": "district",
          "type": "string"
        }
      ],
      "name": "addUser",
      "outputs": [],
      "stateMutability": "nonpayable",
      "type": "function"
    },
    {
      "inputs": [
        {
          "internalType": "string",
          "name": "status",
          "type": "string"
        },
        {
          "internalType": "uint256",
          "name": "id",
          "type": "uint256"
        }
      ],
      "name": "changeVaccine",
      "outputs": [],
      "stateMutability": "nonpayable",
      "type": "function"
    },
    {
      "inputs": [
        {
          "internalType": "uint256",
          "name": "id",
          "type": "uint256"
        }
      ],
      "name": "changeIsDead",
      "outputs": [],
      "stateMutability": "nonpayable",
      "type": "function"
    },
    {
      "inputs": [],
      "name": "changeDayCount",
      "outputs": [],
      "stateMutability": "nonpayable",
      "type": "function"
    },
    {
      "inputs": [],
      "name": "averageDeathRate",
      "outputs": [
        {
          "internalType": "uint256",
          "name": "rate",
          "type": "uint256"
        }
      ],
      "stateMutability": "view",
      "type": "function",
      "constant": true
    },
    {
      "inputs": [],
      "name": "getHighestDistrict",
      "outputs": [
        {
          "internalType": "string",
          "name": "highestDistrict",
          "type": "string"
        }
      ],
      "stateMutability": "view",
      "type": "function",
      "constant": true
    },
    {
      "inputs": [],
      "name": "calcMedian",
      "outputs": [],
      "stateMutability": "nonpayable",
      "type": "function"
    }
  ],
  "bytecode": "0x6080604052600160065534801561001557600080fd5b50611ed5806100256000396000f3fe608060405234801561001057600080fd5b50600436106100ea5760003560e01c806374927a1f1161008c578063b15cf37e11610066578063b15cf37e14610252578063b40621a41461025c578063d69c9efb1461027a578063fe93717114610284576100ea565b806374927a1f146101ea578063957b463314610206578063af35484914610236576100ea565b8063266e2a56116100c8578063266e2a5614610147578063365b98b2146101655780634ae1f2d21461019b57806362eaa48b146101cc576100ea565b806307973ccf146100ef578063142529051461010d57806321cc50361461012b575b600080fd5b6100f76102b5565b604051610104919061124b565b60405180910390f35b6101156102bb565b60405161012291906112f6565b60405180910390f35b61014560048036038101906101409190611358565b6103e7565b005b61014f610b1f565b60405161015c919061124b565b60405180910390f35b61017f600480360381019061017a9190611358565b610b25565b60405161019297969594939291906113a0565b60405180910390f35b6101b560048036038101906101b09190611560565b610d94565b6040516101c39291906115a9565b60405180910390f35b6101d4610dce565b6040516101e1919061124b565b60405180910390f35b61020460048036038101906101ff91906115d2565b610dd4565b005b610220600480360381019061021b9190611358565b610dfb565b60405161022d91906112f6565b60405180910390f35b610250600480360381019061024b919061165a565b610ea7565b005b61025a610fa1565b005b6102646111c2565b604051610271919061124b565b60405180910390f35b6102826111de565b005b61029e60048036038101906102999190611560565b6111f8565b6040516102ac9291906115a9565b60405180910390f35b60045481565b6060806000805b6002805490508110156103de576000600282815481106102e5576102e4611757565b5b9060005260206000200180546102fa906117b5565b80601f0160208091040260200160405190810160405280929190818152602001828054610326906117b5565b80156103735780601f1061034857610100808354040283529160200191610373565b820191906000526020600020905b81548152906001019060200180831161035657829003601f168201915b505050505090508260018260405161038b9190611822565b908152602001604051809103902060000154106103ca578093506001816040516103b59190611822565b90815260200160405180910390206000015492505b5080806103d690611868565b9150506102c2565b50819250505090565b6000151560008083815260200190815260200160002060050160009054906101000a900460ff16151503610b1c57600160008083815260200190815260200160002060050160006101000a81548160ff0219169083151502179055506005600081548092919061045690611868565b91905055506000806000838152602001908152602001600020600601805461047d906117b5565b80601f01602080910402602001604051908101604052809291908181526020018280546104a9906117b5565b80156104f65780601f106104cb576101008083540402835291602001916104f6565b820191906000526020600020905b8154815290600101906020018083116104d957829003601f168201915b50505050509050600060018260405161050f9190611822565b9081526020016040518091039020600001540361055c5760028190806001815401808255809150506001900390600052602060002001600090919091909150908161055a9190611a5c565b505b60018160405161056c9190611822565b9081526020016040518091039020600001600081548092919061058e90611868565b91905055506001816040516105a39190611822565b908152602001604051809103902060020160008084815260200190815260200160002060020154908060018154018082558091505060019003906000526020600020016000909190919091505560006001826040516106029190611822565b908152602001604051809103902060020180549050905060005b6001826106299190611b2e565b8110156108245760005b600182846106419190611b2e565b61064b9190611b2e565b811015610810576001846040516106629190611822565b90815260200160405180910390206002016001826106809190611b62565b8154811061069157610690611757565b5b90600052602060002001546001856040516106ac9190611822565b908152602001604051809103902060020182815481106106cf576106ce611757565b5b906000526020600020015411156107fd5760006001856040516106f29190611822565b9081526020016040518091039020600201828154811061071557610714611757565b5b906000526020600020015490506001856040516107329190611822565b90815260200160405180910390206002016001836107509190611b62565b8154811061076157610760611757565b5b906000526020600020015460018660405161077c9190611822565b9081526020016040518091039020600201838154811061079f5761079e611757565b5b9060005260206000200181905550806001866040516107be9190611822565b90815260200160405180910390206002016001846107dc9190611b62565b815481106107ed576107ec611757565b5b9060005260206000200181905550505b808061080890611868565b915050610633565b50808061081c90611868565b91505061061c565b50600d6000808581526020019081526020016000206002015410156108d957600360405161085190611be2565b9081526020016040518091039020600001600081548092919061087390611868565b91905055506005546064600360405161088b90611be2565b9081526020016040518091039020600001546108a79190611bf7565b6108b19190611c80565b60036040516108bf90611be2565b908152602001604051809103902060010181905550610b19565b600d60008085815260200190815260200160002060020154101580156109145750601460008085815260200190815260200160002060020154105b156109af57600360405161092790611cfd565b9081526020016040518091039020600001600081548092919061094990611868565b91905055506005546064600360405161096190611cfd565b90815260200160405180910390206000015461097d9190611bf7565b6109879190611c80565b600360405161099590611cfd565b908152602001604051809103902060010181905550610b18565b601460008085815260200190815260200160002060020154101580156109ea5750603260008085815260200190815260200160002060020154105b15610a855760036040516109fd90611d5e565b90815260200160405180910390206000016000815480929190610a1f90611868565b919050555060055460646003604051610a3790611d5e565b908152602001604051809103902060000154610a539190611bf7565b610a5d9190611c80565b6003604051610a6b90611d5e565b908152602001604051809103902060010181905550610b17565b6003604051610a9390611dbf565b90815260200160405180910390206000016000815480929190610ab590611868565b919050555060055460646003604051610acd90611dbf565b908152602001604051809103902060000154610ae99190611bf7565b610af39190611c80565b6003604051610b0190611dbf565b9081526020016040518091039020600101819055505b5b5b50505b50565b60065481565b6000602052806000526040600020600091509050806000015490806001018054610b4e906117b5565b80601f0160208091040260200160405190810160405280929190818152602001828054610b7a906117b5565b8015610bc75780601f10610b9c57610100808354040283529160200191610bc7565b820191906000526020600020905b815481529060010190602001808311610baa57829003601f168201915b505050505090806002015490806003018054610be2906117b5565b80601f0160208091040260200160405190810160405280929190818152602001828054610c0e906117b5565b8015610c5b5780601f10610c3057610100808354040283529160200191610c5b565b820191906000526020600020905b815481529060010190602001808311610c3e57829003601f168201915b505050505090806004018054610c70906117b5565b80601f0160208091040260200160405190810160405280929190818152602001828054610c9c906117b5565b8015610ce95780601f10610cbe57610100808354040283529160200191610ce9565b820191906000526020600020905b815481529060010190602001808311610ccc57829003601f168201915b5050505050908060050160009054906101000a900460ff1690806006018054610d11906117b5565b80601f0160208091040260200160405190810160405280929190818152602001828054610d3d906117b5565b8015610d8a5780601f10610d5f57610100808354040283529160200191610d8a565b820191906000526020600020905b815481529060010190602001808311610d6d57829003601f168201915b5050505050905087565b6001818051602081018201805184825260208301602085012081835280955050505050506000915090508060000154908060010154905082565b60055481565b816000808381526020019081526020016000206004019081610df69190611a5c565b505050565b60028181548110610e0b57600080fd5b906000526020600020016000915090508054610e26906117b5565b80601f0160208091040260200160405190810160405280929190818152602001828054610e52906117b5565b8015610e9f5780601f10610e7457610100808354040283529160200191610e9f565b820191906000526020600020905b815481529060010190602001808311610e8257829003601f168201915b505050505081565b60046000815480929190610eba90611868565b91905055506040518060e0016040528060045481526020018781526020018681526020018581526020018481526020018315158152602001828152506000806004548152602001908152602001600020600082015181600001556020820151816001019081610f299190611a5c565b50604082015181600201556060820151816003019081610f499190611a5c565b506080820151816004019081610f5f9190611a5c565b5060a08201518160050160006101000a81548160ff02191690831515021790555060c0820151816006019081610f959190611a5c565b50905050505050505050565b60005b6002805490508110156111bf57600080600160028481548110610fca57610fc9611757565b5b90600052602060002001604051610fe19190611e57565b908152602001604051809103902060020180549050905060006002826110079190611e6e565b1461107a5760016002848154811061102257611021611757565b5b906000526020600020016040516110399190611e57565b90815260200160405180910390206002016002826110579190611c80565b8154811061106857611067611757565b5b90600052602060002001549150611167565b60006002826110899190611c80565b905060026001600286815481106110a3576110a2611757565b5b906000526020600020016040516110ba9190611e57565b908152602001604051809103902060020182815481106110dd576110dc611757565b5b90600052602060002001546001600287815481106110fe576110fd611757565b5b906000526020600020016040516111159190611e57565b90815260200160405180910390206002016001846111339190611b2e565b8154811061114457611143611757565b5b90600052602060002001546111599190611b62565b6111639190611c80565b9250505b8160016002858154811061117e5761117d611757565b5b906000526020600020016040516111959190611e57565b908152602001604051809103902060010181905550505080806111b790611868565b915050610fa4565b50565b6000806006546005546111d59190611c80565b90508091505090565b600660008154809291906111f190611868565b9190505550565b6003818051602081018201805184825260208301602085012081835280955050505050506000915090508060000154908060010154905082565b6000819050919050565b61124581611232565b82525050565b6000602082019050611260600083018461123c565b92915050565b600081519050919050565b600082825260208201905092915050565b60005b838110156112a0578082015181840152602081019050611285565b60008484015250505050565b6000601f19601f8301169050919050565b60006112c882611266565b6112d28185611271565b93506112e2818560208601611282565b6112eb816112ac565b840191505092915050565b6000602082019050818103600083015261131081846112bd565b905092915050565b6000604051905090565b600080fd5b600080fd5b61133581611232565b811461134057600080fd5b50565b6000813590506113528161132c565b92915050565b60006020828403121561136e5761136d611322565b5b600061137c84828501611343565b91505092915050565b60008115159050919050565b61139a81611385565b82525050565b600060e0820190506113b5600083018a61123c565b81810360208301526113c781896112bd565b90506113d6604083018861123c565b81810360608301526113e881876112bd565b905081810360808301526113fc81866112bd565b905061140b60a0830185611391565b81810360c083015261141d81846112bd565b905098975050505050505050565b600080fd5b600080fd5b7f4e487b7100000000000000000000000000000000000000000000000000000000600052604160045260246000fd5b61146d826112ac565b810181811067ffffffffffffffff8211171561148c5761148b611435565b5b80604052505050565b600061149f611318565b90506114ab8282611464565b919050565b600067ffffffffffffffff8211156114cb576114ca611435565b5b6114d4826112ac565b9050602081019050919050565b82818337600083830152505050565b60006115036114fe846114b0565b611495565b90508281526020810184848401111561151f5761151e611430565b5b61152a8482856114e1565b509392505050565b600082601f8301126115475761154661142b565b5b81356115578482602086016114f0565b91505092915050565b60006020828403121561157657611575611322565b5b600082013567ffffffffffffffff81111561159457611593611327565b5b6115a084828501611532565b91505092915050565b60006040820190506115be600083018561123c565b6115cb602083018461123c565b9392505050565b600080604083850312156115e9576115e8611322565b5b600083013567ffffffffffffffff81111561160757611606611327565b5b61161385828601611532565b925050602061162485828601611343565b9150509250929050565b61163781611385565b811461164257600080fd5b50565b6000813590506116548161162e565b92915050565b60008060008060008060c0878903121561167757611676611322565b5b600087013567ffffffffffffffff81111561169557611694611327565b5b6116a189828a01611532565b96505060206116b289828a01611343565b955050604087013567ffffffffffffffff8111156116d3576116d2611327565b5b6116df89828a01611532565b945050606087013567ffffffffffffffff811115611700576116ff611327565b5b61170c89828a01611532565b935050608061171d89828a01611645565b92505060a087013567ffffffffffffffff81111561173e5761173d611327565b5b61174a89828a01611532565b9150509295509295509295565b7f4e487b7100000000000000000000000000000000000000000000000000000000600052603260045260246000fd5b7f4e487b7100000000000000000000000000000000000000000000000000000000600052602260045260246000fd5b600060028204905060018216806117cd57607f821691505b6020821081036117e0576117df611786565b5b50919050565b600081905092915050565b60006117fc82611266565b61180681856117e6565b9350611816818560208601611282565b80840191505092915050565b600061182e82846117f1565b915081905092915050565b7f4e487b7100000000000000000000000000000000000000000000000000000000600052601160045260246000fd5b600061187382611232565b91507fffffffffffffffffffffffffffffffffffffffffffffffffffffffffffffffff82036118a5576118a4611839565b5b600182019050919050565b60008190508160005260206000209050919050565b60006020601f8301049050919050565b600082821b905092915050565b6000600883026119127fffffffffffffffffffffffffffffffffffffffffffffffffffffffffffffffff826118d5565b61191c86836118d5565b95508019841693508086168417925050509392505050565b6000819050919050565b600061195961195461194f84611232565b611934565b611232565b9050919050565b6000819050919050565b6119738361193e565b61198761197f82611960565b8484546118e2565b825550505050565b600090565b61199c61198f565b6119a781848461196a565b505050565b5b818110156119cb576119c0600082611994565b6001810190506119ad565b5050565b601f821115611a10576119e1816118b0565b6119ea846118c5565b810160208510156119f9578190505b611a0d611a05856118c5565b8301826119ac565b50505b505050565b600082821c905092915050565b6000611a3360001984600802611a15565b1980831691505092915050565b6000611a4c8383611a22565b9150826002028217905092915050565b611a6582611266565b67ffffffffffffffff811115611a7e57611a7d611435565b5b611a8882546117b5565b611a938282856119cf565b600060209050601f831160018114611ac65760008415611ab4578287015190505b611abe8582611a40565b865550611b26565b601f198416611ad4866118b0565b60005b82811015611afc57848901518255600182019150602085019450602081019050611ad7565b86831015611b195784890151611b15601f891682611a22565b8355505b6001600288020188555050505b505050505050565b6000611b3982611232565b9150611b4483611232565b9250828203905081811115611b5c57611b5b611839565b5b92915050565b6000611b6d82611232565b9150611b7883611232565b9250828201905080821115611b9057611b8f611839565b5b92915050565b7f6368696c6472656e000000000000000000000000000000000000000000000000600082015250565b6000611bcc6008836117e6565b9150611bd782611b96565b600882019050919050565b6000611bed82611bbf565b9150819050919050565b6000611c0282611232565b9150611c0d83611232565b9250817fffffffffffffffffffffffffffffffffffffffffffffffffffffffffffffffff0483118215151615611c4657611c45611839565b5b828202905092915050565b7f4e487b7100000000000000000000000000000000000000000000000000000000600052601260045260246000fd5b6000611c8b82611232565b9150611c9683611232565b925082611ca657611ca5611c51565b5b828204905092915050565b7f7465656e61676500000000000000000000000000000000000000000000000000600082015250565b6000611ce76007836117e6565b9150611cf282611cb1565b600782019050919050565b6000611d0882611cda565b9150819050919050565b7f796f756e67000000000000000000000000000000000000000000000000000000600082015250565b6000611d486005836117e6565b9150611d5382611d12565b600582019050919050565b6000611d6982611d3b565b9150819050919050565b7f656c646572000000000000000000000000000000000000000000000000000000600082015250565b6000611da96005836117e6565b9150611db482611d73565b600582019050919050565b6000611dca82611d9c565b9150819050919050565b60008154611de1816117b5565b611deb81866117e6565b94506001821660008114611e065760018114611e1b57611e4e565b60ff1983168652811515820286019350611e4e565b611e24856118b0565b60005b83811015611e4657815481890152600182019150602081019050611e27565b838801955050505b50505092915050565b6000611e638284611dd4565b915081905092915050565b6000611e7982611232565b9150611e8483611232565b925082611e9457611e93611c51565b5b82820690509291505056fea2646970667358221220d2d0ee5a2a60c91656e3ba8b4ff47b2a4e66b393a91860db76f1596ed36b598b64736f6c63430008100033",
  "immutableReferences": {},
  "source": "// SPDX-License-Identifier: GPL-3.0\npragma solidity >=0.7.0 <0.9.0;\n\n\ncontract Management {\n\n\n    // model a user   ayesha,20,f,none,false,dhk\n    struct User {\n        uint256 id;\n        string name;\n        uint256 age;\n        string gender;\n        string vaccine_status;\n        bool is_dead;\n        string district;\n   }\n\n  mapping( uint256 => User ) public users;\n  \n  \n// stores each district inforation\n  struct DistrictCount {\n    uint256 count;\n    uint256 median;\n    uint256[] age;\n  }\n\n  mapping ( string => DistrictCount) public districtCount; \n  string[] public keyNames;\n  \n\n//groups the dead people\n  struct Dead {\n    uint256 count;\n    uint256 percentage;\n  }\n\n  mapping (string => Dead) public deadGroup;\n\n\n\n   // store user count\n   uint256 public userCount;\n\n   uint256 public deadCount;\n\n   uint256 public dayCount = 1;\n   \n   \n  \n\t//register with user info\n   function addUser(string memory name, uint256 age, string memory gender, string memory vaccine_status, bool is_dead, string memory district) public {\n    userCount++;\n    users[userCount] = User(userCount, name, age, gender,vaccine_status, is_dead, district);\n   }\n\n\n    //change vaccine  status\n   function changeVaccine(string memory status, uint256 id) public{\n        users[id].vaccine_status= status; \n   }\n\n\n    //cahnge is_dead status.\n   function changeIsDead(uint256 id) public{\n      if (users[id].is_dead == false) {\n        users[id].is_dead= true; \n        deadCount++;\n        string memory dis = users[id].district;\n        if (districtCount[dis].count==0){\n          keyNames.push(dis);\n        }\n        districtCount[dis].count ++;\n        districtCount[dis].age.push(users[id].age);\n\n        //sorting the age list\n        uint n = districtCount[dis].age.length;\n        for (uint i = 0; i < n - 1; i++) {\n            for (uint j = 0; j < n - i - 1; j++) {\n                if (districtCount[dis].age[j] > districtCount[dis].age[j + 1]) {\n                    uint temp = districtCount[dis].age[j];\n                    districtCount[dis].age[j] = districtCount[dis].age[j + 1];\n                    districtCount[dis].age[j + 1] = temp;\n                }\n            }\n        }\n\n        //categorise the dead-->\n        if (users[id].age < 13){\n          deadGroup[\"children\"].count ++;\n          deadGroup[\"children\"].percentage = (deadGroup[\"children\"].count * 100/ deadCount) ;\n        }\n        else if( users[id].age >= 13 && users[id].age < 20){\n          deadGroup[\"teenage\"].count ++;\n          deadGroup[\"teenage\"].percentage = (deadGroup[\"teenage\"].count * 100 / deadCount) ;\n        }\n        else if(users[id].age >= 20 && users[id].age < 50){\n          deadGroup[\"young\"].count ++;\n          deadGroup[\"young\"].percentage = (deadGroup[\"young\"].count * 100/ deadCount) ;\n        } else {\n          deadGroup[\"elder\"].count ++;\n          deadGroup[\"elder\"].percentage = (deadGroup[\"elder\"].count * 100/ deadCount);\n        }\n                \n      }\n   }\n\n\t//change the day count when it's a new day\n   function changeDayCount() public {\n    dayCount++;\n   }\n\n\n   function averageDeathRate() view public returns(uint256 rate ) {\n      uint avg = deadCount/dayCount;\n      return avg;\n   }\n\n\n\n   //Get the district with highest number of death here ==>\n\n   function getHighestDistrict() view public returns(string memory highestDistrict) {\n      string memory district; \n      uint256 highest = 0 ;\n      for (uint256 i=0; i < keyNames.length; i++){\n        string memory dist = keyNames[i];\n        if (districtCount[dist].count >= highest){\n          district = dist;\n          highest = districtCount[dist].count;\n        }\n    }\n    return district; \n   }\n   \n   \n   \n\n   // get the median in each district ==> \n\n   function calcMedian() public {\n\n    for (uint256 i; i < keyNames.length; i++){\n      uint256 med;\n      uint256 n = districtCount[keyNames[i]].age.length;\n      if (n % 2 != 0){\n        med = districtCount[keyNames[i]].age[n / 2];\n      } else{\n        uint256 m = n/2;\n        med = (districtCount[keyNames[i]].age[m-1]+districtCount[keyNames[i]].age[m])/2;\n      }\n      districtCount[keyNames[i]].median = med;\n    }\n   }\n\n}\n",
  "sourcePath": "/home/ayesha/hospital-management/contracts/Management.sol",
  "compiler": {
    "name": "solc",
    "version": "0.8.16+commit.07a7930e.Emscripten.clang"
  },
  "schemaVersion": "3.4.16",
  "updatedAt": "2024-04-13T11:09:16.474Z",
  "networkType": "ethereum",
  "devdoc": {
    "kind": "dev",
    "methods": {},
    "version": 1
  },
  "userdoc": {
    "kind": "user",
    "methods": {},
    "version": 1
  }
}